S01700004763634170706C69636174696F6E382E7372656354
S113000045C0000060C000005EC000005CC000008D
S11300105AC0000058C0000056C0000054C0000080
S113002052C0000050C000004EC000004CC0000090
S11300304AC0000048C0000046C0000044C00000A0
S113004042C0000040C000003EC000003CC00000B0
S11300503AC0000038C0000036C0000034C00000C0
S113006033C0000030C000002EC000002CC00000CF
S11300702AC0000028C0000026C0000024C00000E0
S113008022C0000020C000001EC0000011241FBEBA
S1130090CFEFD0E4DEBFCDBF11E0A0E0B1E0EEE2EF
S11300A0F7E000E00BBF02C007900D92AE30B1073D
S11300B0D9F721E0AEE0B1E001C01D92AD32B20744
S11300C0E1F745D032C39CCF1F920F920FB60F9227
S11300D011240BB60F922F938F939F93AF93BF93DB
S11300E0EF93FF93209178008091790090E0982F0E
S11300F08827822BACE7B0E0EC91E770F0E0EE0FDC
S1130100FF1FE95EFE4F918380838C91873439F41D
S113011080E480937C0081E080930E0105C0ECE7CD
S1130120F0E080818F5F8083EAE7F0E08081806483
S11301308083FF91EF91BF91AF919F918F912F9108
S11301400F900BBE0F900FBE0F901F901895CF937A
S1130150DF932FE38DE093E0215080409040E1F75E
S113016000C000003BD18DD02FE78AE196E02150FA
S113017080409040E1F700C00000C0E0D0E079C0CA
S11301804BD1882309F475C040D18334910539F1EA
S11301903CF48134910569F082349105A9F056C08C
S11301A08534910591F134F18634910509F438C010
S11301B04DC041E062E381E083D040E069E080E04B
S11301C07FD081E41DD14CC041E062E381E078D06E
S11301D040E06DE180E074D082E412D141C041E09E
S11301E062E381E06DD040E06DE180E069D083E4BA
S11301F007D136C041E06EE181E062D040E061E3C6
S113020080E05ED084E4FCD02BC041E06AE081E071
S113021057D040E061E380E053D085E4F1D020C0C2
S11302202FE382E49FE0215080409040E1F700C03A
S1130230000041E060E081E043D040E060E080E025
S11302403FD086E4DDD0C1E0D0E00AC041E060E008
S113025081E036D040E060E080E032D087E4D0D066
S11302602FE38DE093E0215080409040E1F700C0FF
S11302700000209709F484CF80E090E0DF91CF91D3
S1130280089587B1806F87B98AB180638AB9E0E83D
S1130290F0E08081826A8083E1E8F0E080818A6115
S11302A0808380EA9FE09093870080938600109279
S11302B089001092880010928B0010928A00089591
S11302C0CF92DF92EF92FF920F931F93CF93C42F9D
S11302D0811137C06623F9F08AB180628AB970E06F
S11302E080E090E031D1009186001091870020E0F9
S11302F030E048EC52E494D06B017C01B80180E01A
S113030090E022D1A7019601ADD1F2D0709389007B
S11303106093880003C08AB18F7D8AB9C11107C078
S113032088B1806488B988B18F7788B93FC0C130FB
S113033009F03CC088B18F7B88B988B1806888B9DE
S113034035C06623F9F08AB180618AB970E080E033
S113035090E0FAD0009186001091870020E030E010
S113036048EC52E45DD06B017C01B80180E090E080
S1130370EBD0A701960176D1BBD070938B0060932C
S11303808A0003C08AB18F7E8AB9C11107C088B1BF
S1130390806188B988B18F7D88B908C0C13031F4D3
S11303A088B18F7E88B988B1806288B9CF911F9156
S11303B00F91FF90EF90DF90CF900895CF93C82FC7
S11303C08A3011F48DE0FADF8091C00085FFFCCF04
S11303D0C093C60080E090E0CF91089580E091E062
S11303E090932A01809329011092C50083E380939E
S11303F0C40088E18093C1008EE08093C200089518
S11304009091C0008093C60008958091C000882315
S1130410E4F78091C60008958091C0008078089523
S11304200CD0E6C0DED040F0D5D030F021F45F3FF0
S113043019F0C7C0511110C1CAC0EBD098F3992369
S1130440C9F35523B1F3951B550BBB27AA27621794
S11304507307840738F09F5F5F4F220F331F441FD9
S1130460AA1FA9F333D00E2E3AF0E0E830D0915011
S11304705040E695001CCAF729D0FE2F27D0660FFE
S1130480771F881FBB1F261737074807AB07B0E83D
S113049009F0BB0B802DBF01FF2793585F4F2AF053
S11304A09E3F510568F08DC0D7C05F3FECF3983E86
S11304B0DCF3869577956795B795F7959F5FC9F7B0
S11304C0880F911D9695879597F90895E1E0660F39
S11304D0771F881FBB1F621773078407BA0720F0B2
S11304E0621B730B840BBA0BEE1F88F7E09508951B
S11304F098D088F09F5790F0B92F9927B751A0F062
S1130500D1F0660F771F881F991F1AF0BA95C9F7A3
S113051012C0B13081F09FD0B1E008959CC0672F24
S1130520782F8827B85F39F0B93FCCF38695779553
S11305306795B395D9F73EF490958095709561953C
S11305407F4F8F4F9F4F0895E89409C097FB3EF467
S113055090958095709561957F4F8F4F9F4F99230C
S1130560A9F0F92F96E9BB279395F695879577958A
S11305706795B795F111F8CFFAF4BB0F11F460FF4A
S11305801BC06F5F7F4F8F4F9F4F16C0882311F0A2
S113059096E911C0772321F09EE8872F762F05C0B6
S11305A0662371F096E8862F70E060E02AF09A9551
S11305B0660F771F881FDAF7880F9695879597F946
S11305C0089597F99F6780E870E060E008959FEFD1
S11305D080EC089500240A941616170618060906D6
S11305E0089500240A9412161306140605060895A5
S11305F0092E0394000C11F4882352F0BB0F40F42D
S1130600BF2B11F460FF04C06F5F7F4F8F4F9F4F6C
S1130610089557FD9058440F551F59F05F3F71F0EE
S11306204795880F97FB991F61F09F3F79F0879555
S11306300895121613061406551FF2CF4695F1DFDE
S113064008C0161617061806991FF1CF869571056E
S1130650610508940895E894BB2766277727CB01A2
S113066097F908950BD0C4CFB5DF28F0BADF18F09E
S1130670952309F0A6CFABCF1124EECFCADFA0F3A8
S1130680959FD1F3950F50E0551F629FF001729F23
S1130690BB27F00DB11D639FAA27F00DB11DAA1F42
S11306A0649F6627B00DA11D661F829F2227B00D8F
S11306B0A11D621F739FB00DA11D621F839FA00D1A
S11306C0611D221F749F3327A00D611D231F849F6A
S11306D0600D211D822F762F6A2F11249F575040C1
S11306E08AF0E1F088234AF0EE0FFF1FBB1F661F5C
S11306F0771F881F91505040A9F79E3F510570F015
S113070060CFAACF5F3FECF3983EDCF386957795F4
S11307106795B795F795E7959F5FC1F7FE2B880F0F
S1110720911D9695879597F90895F894FFCF4B
S111072E0000000200000000DE0100000000D8
S9030000FC
